{
  "contractName": "AddressTest",
  "abi": [
    {
      "constant": true,
      "inputs": [
        {
          "name": "addr",
          "type": "address"
        }
      ],
      "name": "getBalance",
      "outputs": [
        {
          "name": "",
          "type": "uint256"
        }
      ],
      "payable": false,
      "stateMutability": "view",
      "type": "function"
    }
  ],
  "bytecode": "0x6060604052341561000f57600080fd5b60db8061001d6000396000f300606060405260043610603f576000357c0100000000000000000000000000000000000000000000000000000000900463ffffffff168063f8b2cb4f146044575b600080fd5b3415604e57600080fd5b6078600480803573ffffffffffffffffffffffffffffffffffffffff16906020019091905050608e565b6040518082815260200191505060405180910390f35b60008173ffffffffffffffffffffffffffffffffffffffff163190509190505600a165627a7a72305820e452c08afb61e5492a1465dc4d6be8f4967c405a3ca59a4b1d7800e3a3247c200029",
  "source": "pragma solidity ^0.4.0;\r\n\r\ncontract AddressTest{\r\n\r\n    function getBalance(address addr) public view returns (uint){\r\n        return addr.balance;\r\n    }\r\n\r\n}",
  "sourcePath": "D:\\dapps\\pet-shop\\contracts\\AddressTest.sol",
  "compiler": {
    "name": "solc",
    "version": "0.4.21+commit.dfe3193c.Emscripten.clang"
  },
  "schemaVersion": "2.0.0",
  "updatedAt": "2018-04-17T08:46:32.886Z"
}