{
  "contractName": "BusinessContract",
  "abi": [
    {
      "anonymous": false,
      "inputs": [
        {
          "indexed": false,
          "name": "firstParty",
          "type": "address"
        },
        {
          "indexed": false,
          "name": "secondParty",
          "type": "address"
        }
      ],
      "name": "Save",
      "type": "event"
    },
    {
      "constant": false,
      "inputs": [
        {
          "name": "firstParty",
          "type": "address"
        },
        {
          "name": "secondParty",
          "type": "address"
        },
        {
          "name": "userId",
          "type": "uint256"
        },
        {
          "name": "shareProfit",
          "type": "uint256"
        },
        {
          "name": "expireYear",
          "type": "uint256"
        }
      ],
      "name": "signContract",
      "outputs": [],
      "payable": false,
      "stateMutability": "nonpayable",
      "type": "function"
    },
    {
      "constant": false,
      "inputs": [
        {
          "name": "signParty",
          "type": "address"
        }
      ],
      "name": "getContract",
      "outputs": [
        {
          "name": "firstParty",
          "type": "address"
        },
        {
          "name": "secondParty",
          "type": "address"
        },
        {
          "name": "userId",
          "type": "uint256"
        },
        {
          "name": "shareProfit",
          "type": "uint256"
        },
        {
          "name": "expireYear",
          "type": "uint256"
        }
      ],
      "payable": false,
      "stateMutability": "nonpayable",
      "type": "function"
    }
  ],
  "bytecode": "0x6060604052341561000f57600080fd5b6105c68061001e6000396000f30060606040526004361061004c576000357c0100000000000000000000000000000000000000000000000000000000900463ffffffff1680630ad1c2fa1461005157806311b41c9914610112575b600080fd5b341561005c57600080fd5b610088600480803573ffffffffffffffffffffffffffffffffffffffff16906020019091905050610185565b604051808673ffffffffffffffffffffffffffffffffffffffff1673ffffffffffffffffffffffffffffffffffffffff1681526020018573ffffffffffffffffffffffffffffffffffffffff1673ffffffffffffffffffffffffffffffffffffffff1681526020018481526020018381526020018281526020019550505050505060405180910390f35b341561011d57600080fd5b610183600480803573ffffffffffffffffffffffffffffffffffffffff1690602001909190803573ffffffffffffffffffffffffffffffffffffffff1690602001909190803590602001909190803590602001909190803590602001909190505061032a565b005b60008060008060008060008773ffffffffffffffffffffffffffffffffffffffff1673ffffffffffffffffffffffffffffffffffffffff16815260200190815260200160002060000160009054906101000a900473ffffffffffffffffffffffffffffffffffffffff1694506000808773ffffffffffffffffffffffffffffffffffffffff1673ffffffffffffffffffffffffffffffffffffffff16815260200190815260200160002060010160009054906101000a900473ffffffffffffffffffffffffffffffffffffffff1693506000808773ffffffffffffffffffffffffffffffffffffffff1673ffffffffffffffffffffffffffffffffffffffff1681526020019081526020016000206002015492506000808773ffffffffffffffffffffffffffffffffffffffff1673ffffffffffffffffffffffffffffffffffffffff1681526020019081526020016000206003015491506000808773ffffffffffffffffffffffffffffffffffffffff1673ffffffffffffffffffffffffffffffffffffffff16815260200190815260200160002060040154905091939590929450565b846000803373ffffffffffffffffffffffffffffffffffffffff1673ffffffffffffffffffffffffffffffffffffffff16815260200190815260200160002060000160006101000a81548173ffffffffffffffffffffffffffffffffffffffff021916908373ffffffffffffffffffffffffffffffffffffffff160217905550836000803373ffffffffffffffffffffffffffffffffffffffff1673ffffffffffffffffffffffffffffffffffffffff16815260200190815260200160002060010160006101000a81548173ffffffffffffffffffffffffffffffffffffffff021916908373ffffffffffffffffffffffffffffffffffffffff160217905550826000803373ffffffffffffffffffffffffffffffffffffffff1673ffffffffffffffffffffffffffffffffffffffff16815260200190815260200160002060020181905550816000803373ffffffffffffffffffffffffffffffffffffffff1673ffffffffffffffffffffffffffffffffffffffff16815260200190815260200160002060030181905550806000803373ffffffffffffffffffffffffffffffffffffffff1673ffffffffffffffffffffffffffffffffffffffff168152602001908152602001600020600401819055507f0a662ca63f35aad9325082a085e1429e1bc1471940f49f09df4745359c4602fb3385604051808373ffffffffffffffffffffffffffffffffffffffff1673ffffffffffffffffffffffffffffffffffffffff1681526020018273ffffffffffffffffffffffffffffffffffffffff1673ffffffffffffffffffffffffffffffffffffffff1681526020019250505060405180910390a150505050505600a165627a7a723058208abf542009e1ed6f0ed3c2f11e88d1df7d92f4c1a8e071151d4725839226fac90029",
  "source": "pragma solidity ^0.4.2;\r\n\r\ncontract BusinessContract {\r\n    struct Content{\r\n        //甲方地址\r\n        address firstParty;\r\n        //乙方地址\r\n        address secondParty;\r\n        //甲方ID\r\n        uint userId;\r\n        //分润点 0-100 %\r\n        uint shareProfit ;\r\n        //有效时间  N 年\r\n        uint expireYear;\r\n        //交易哈希值\r\n        uint txHash;\r\n    }\r\n\r\n    //合约内容集合\r\n    mapping (address=>Content)  contents;\r\n\r\n    event Save(address firstParty,address secondParty);\r\n\r\n    //签署合约\r\n    function signContract(address firstParty,address secondParty,uint userId,uint shareProfit,uint expireYear) public{\r\n        contents[msg.sender].firstParty=firstParty;\r\n        contents[msg.sender].secondParty=secondParty;\r\n        contents[msg.sender].userId=userId;\r\n        contents[msg.sender].shareProfit=shareProfit;\r\n        contents[msg.sender].expireYear=expireYear;\r\n        Save(msg.sender,secondParty);\r\n    }\r\n\r\n\r\n    function getContract(address signParty) public returns(address firstParty,address secondParty,uint userId,uint shareProfit,uint expireYear){\r\n         firstParty=contents[signParty].firstParty;\r\n         secondParty=contents[signParty].secondParty;\r\n         userId=contents[signParty].userId;\r\n         shareProfit=contents[signParty].shareProfit;\r\n         expireYear=contents[signParty].expireYear;\r\n    }\r\n}",
  "sourcePath": "D:\\dapps\\pet-shop\\contracts\\BusinessContract.sol",
  "compiler": {
    "name": "solc",
    "version": "0.4.21+commit.dfe3193c.Emscripten.clang"
  },
  "schemaVersion": "2.0.0",
  "updatedAt": "2018-04-17T08:46:23.373Z"
}