{
  "contractName": "BusinessContract",
  "abi": [
    {
      "constant": true,
      "inputs": [
        {
          "name": "",
          "type": "address"
        }
      ],
      "name": "accounts",
      "outputs": [
        {
          "name": "userAddress",
          "type": "address"
        },
        {
          "name": "userId",
          "type": "uint256"
        },
        {
          "name": "balance",
          "type": "uint256"
        }
      ],
      "payable": false,
      "stateMutability": "view",
      "type": "function"
    },
    {
      "constant": true,
      "inputs": [
        {
          "name": "",
          "type": "address"
        }
      ],
      "name": "cos",
      "outputs": [
        {
          "name": "firstParty",
          "type": "address"
        },
        {
          "name": "secondParty",
          "type": "address"
        },
        {
          "name": "userId",
          "type": "uint256"
        },
        {
          "name": "shareProfit",
          "type": "uint256"
        },
        {
          "name": "expireYear",
          "type": "uint256"
        },
        {
          "name": "txHash",
          "type": "uint256"
        },
        {
          "name": "timestamp",
          "type": "uint256"
        },
        {
          "name": "remark",
          "type": "string"
        }
      ],
      "payable": false,
      "stateMutability": "view",
      "type": "function"
    },
    {
      "constant": true,
      "inputs": [
        {
          "name": "",
          "type": "uint256"
        }
      ],
      "name": "transactions",
      "outputs": [
        {
          "name": "from",
          "type": "address"
        },
        {
          "name": "to",
          "type": "address"
        },
        {
          "name": "amount",
          "type": "uint256"
        },
        {
          "name": "timestamp",
          "type": "uint256"
        },
        {
          "name": "remark",
          "type": "string"
        }
      ],
      "payable": false,
      "stateMutability": "view",
      "type": "function"
    },
    {
      "constant": true,
      "inputs": [
        {
          "name": "",
          "type": "address"
        },
        {
          "name": "",
          "type": "address"
        }
      ],
      "name": "contents",
      "outputs": [
        {
          "name": "firstParty",
          "type": "address"
        },
        {
          "name": "secondParty",
          "type": "address"
        },
        {
          "name": "userId",
          "type": "uint256"
        },
        {
          "name": "shareProfit",
          "type": "uint256"
        },
        {
          "name": "expireYear",
          "type": "uint256"
        },
        {
          "name": "txHash",
          "type": "uint256"
        },
        {
          "name": "timestamp",
          "type": "uint256"
        },
        {
          "name": "remark",
          "type": "string"
        }
      ],
      "payable": false,
      "stateMutability": "view",
      "type": "function"
    },
    {
      "anonymous": false,
      "inputs": [
        {
          "indexed": false,
          "name": "firstParty",
          "type": "address"
        },
        {
          "indexed": false,
          "name": "secondParty",
          "type": "address"
        }
      ],
      "name": "Save",
      "type": "event"
    },
    {
      "constant": false,
      "inputs": [
        {
          "name": "firstParty",
          "type": "address"
        },
        {
          "name": "secondParty",
          "type": "address"
        },
        {
          "name": "userId",
          "type": "uint256"
        },
        {
          "name": "shareProfit",
          "type": "uint256"
        },
        {
          "name": "expireYear",
          "type": "uint256"
        },
        {
          "name": "remark",
          "type": "string"
        }
      ],
      "name": "signContract",
      "outputs": [],
      "payable": false,
      "stateMutability": "nonpayable",
      "type": "function"
    },
    {
      "constant": false,
      "inputs": [
        {
          "name": "secondParty",
          "type": "address"
        }
      ],
      "name": "getContracts",
      "outputs": [
        {
          "name": "firstParty",
          "type": "address"
        },
        {
          "name": "secondParty1",
          "type": "address"
        },
        {
          "name": "userId",
          "type": "uint256"
        },
        {
          "name": "shareProfit",
          "type": "uint256"
        },
        {
          "name": "expireYear",
          "type": "uint256"
        },
        {
          "name": "timestamp",
          "type": "uint256"
        },
        {
          "name": "remark",
          "type": "string"
        }
      ],
      "payable": false,
      "stateMutability": "nonpayable",
      "type": "function"
    },
    {
      "constant": false,
      "inputs": [],
      "name": "getContract",
      "outputs": [
        {
          "name": "firstParty",
          "type": "address"
        },
        {
          "name": "secondParty1",
          "type": "address"
        },
        {
          "name": "userId",
          "type": "uint256"
        },
        {
          "name": "shareProfit",
          "type": "uint256"
        },
        {
          "name": "expireYear",
          "type": "uint256"
        },
        {
          "name": "timestamp",
          "type": "uint256"
        },
        {
          "name": "remark",
          "type": "string"
        }
      ],
      "payable": false,
      "stateMutability": "nonpayable",
      "type": "function"
    },
    {
      "constant": false,
      "inputs": [
        {
          "name": "to",
          "type": "address"
        },
        {
          "name": "amount",
          "type": "uint256"
        },
        {
          "name": "remark",
          "type": "string"
        }
      ],
      "name": "transform",
      "outputs": [],
      "payable": false,
      "stateMutability": "nonpayable",
      "type": "function"
    },
    {
      "constant": false,
      "inputs": [
        {
          "name": "from",
          "type": "address"
        },
        {
          "name": "to",
          "type": "address"
        },
        {
          "name": "amount",
          "type": "uint256"
        },
        {
          "name": "timestamp",
          "type": "uint256"
        },
        {
          "name": "remark",
          "type": "string"
        }
      ],
      "name": "takerecord",
      "outputs": [],
      "payable": false,
      "stateMutability": "nonpayable",
      "type": "function"
    }
  ],
  "bytecode": "0x6060604052341561000f57600080fd5b611c328061001e6000396000f300606060405260043610610099576000357c0100000000000000000000000000000000000000000000000000000000900463ffffffff168063213fe2b71461009e5780632c918d9d146100da5780635e5c06e2146100fc578063958f85bd1461013457806399f7873c146101635780639ace38c2146101a0578063a013c7e0146101da578063b26ad9ce146101fc578063fa433f2514610239575b600080fd5b34156100a957600080fd5b6100be60046100b9903690611624565b61025b565b6040516100d197969594939291906119b0565b60405180910390f35b34156100e557600080fd5b6100fa60046100f5903690611689565b6106e0565b005b341561010757600080fd5b61011c6004610117903690611624565b610826565b60405161012b93929190611aab565b60405180910390f35b341561013f57600080fd5b610147610870565b60405161015a97969594939291906119b0565b60405180910390f35b341561016e57600080fd5b610183600461017e903690611624565b610b48565b604051610197989796959493929190611a26565b60405180910390f35b34156101ab57600080fd5b6101c060046101bb903690611820565b610c68565b6040516101d19594939291906118fc565b60405180910390f35b34156101e557600080fd5b6101fa60046101f59036906117b9565b610d85565b005b341561020757600080fd5b61021c600461021790369061164d565b610efd565b604051610230989796959493929190611a26565b60405180910390f35b341561024457600080fd5b6102596004610254903690611718565b61102a565b005b60008060008060008061026c61135a565b600160003373ffffffffffffffffffffffffffffffffffffffff1673ffffffffffffffffffffffffffffffffffffffff16815260200190815260200160002060008973ffffffffffffffffffffffffffffffffffffffff1673ffffffffffffffffffffffffffffffffffffffff16815260200190815260200160002060000160009054906101000a900473ffffffffffffffffffffffffffffffffffffffff16600160003373ffffffffffffffffffffffffffffffffffffffff1673ffffffffffffffffffffffffffffffffffffffff16815260200190815260200160002060008a73ffffffffffffffffffffffffffffffffffffffff1673ffffffffffffffffffffffffffffffffffffffff16815260200190815260200160002060010160009054906101000a900473ffffffffffffffffffffffffffffffffffffffff16600160003373ffffffffffffffffffffffffffffffffffffffff1673ffffffffffffffffffffffffffffffffffffffff16815260200190815260200160002060008b73ffffffffffffffffffffffffffffffffffffffff1673ffffffffffffffffffffffffffffffffffffffff16815260200190815260200160002060020154600160003373ffffffffffffffffffffffffffffffffffffffff1673ffffffffffffffffffffffffffffffffffffffff16815260200190815260200160002060008c73ffffffffffffffffffffffffffffffffffffffff1673ffffffffffffffffffffffffffffffffffffffff16815260200190815260200160002060030154600160003373ffffffffffffffffffffffffffffffffffffffff1673ffffffffffffffffffffffffffffffffffffffff16815260200190815260200160002060008d73ffffffffffffffffffffffffffffffffffffffff1673ffffffffffffffffffffffffffffffffffffffff16815260200190815260200160002060040154600160003373ffffffffffffffffffffffffffffffffffffffff1673ffffffffffffffffffffffffffffffffffffffff16815260200190815260200160002060008e73ffffffffffffffffffffffffffffffffffffffff1673ffffffffffffffffffffffffffffffffffffffff16815260200190815260200160002060060154600160003373ffffffffffffffffffffffffffffffffffffffff1673ffffffffffffffffffffffffffffffffffffffff16815260200190815260200160002060008f73ffffffffffffffffffffffffffffffffffffffff1673ffffffffffffffffffffffffffffffffffffffff168152602001908152602001600020600701808054600181600116156101000203166002900480601f0160208091040260200160405190810160405280929190818152602001828054600181600116156101000203166002900480156106c05780601f10610695576101008083540402835291602001916106c0565b820191906000526020600020905b8154815290600101906020018083116106a357829003601f168201915b505050505090509650965096509650965096509650919395979092949650565b600380548060010182816106f4919061136e565b9160005260206000209060050201600060a0604051908101604052808973ffffffffffffffffffffffffffffffffffffffff1681526020018873ffffffffffffffffffffffffffffffffffffffff16815260200187815260200186815260200185815250909190915060008201518160000160006101000a81548173ffffffffffffffffffffffffffffffffffffffff021916908373ffffffffffffffffffffffffffffffffffffffff16021790555060208201518160010160006101000a81548173ffffffffffffffffffffffffffffffffffffffff021916908373ffffffffffffffffffffffffffffffffffffffff1602179055506040820151816002015560608201518160030155608082015181600401908051906020019061081b9291906113a0565b505050505050505050565b60006020528060005260406000206000915090508060000160009054906101000a900473ffffffffffffffffffffffffffffffffffffffff16908060010154908060020154905083565b60008060008060008061088161135a565b600260003373ffffffffffffffffffffffffffffffffffffffff1673ffffffffffffffffffffffffffffffffffffffff16815260200190815260200160002060000160009054906101000a900473ffffffffffffffffffffffffffffffffffffffff16600260003373ffffffffffffffffffffffffffffffffffffffff1673ffffffffffffffffffffffffffffffffffffffff16815260200190815260200160002060010160009054906101000a900473ffffffffffffffffffffffffffffffffffffffff16600260003373ffffffffffffffffffffffffffffffffffffffff1673ffffffffffffffffffffffffffffffffffffffff16815260200190815260200160002060020154600260003373ffffffffffffffffffffffffffffffffffffffff1673ffffffffffffffffffffffffffffffffffffffff16815260200190815260200160002060030154600260003373ffffffffffffffffffffffffffffffffffffffff1673ffffffffffffffffffffffffffffffffffffffff16815260200190815260200160002060040154600260003373ffffffffffffffffffffffffffffffffffffffff1673ffffffffffffffffffffffffffffffffffffffff16815260200190815260200160002060060154600260003373ffffffffffffffffffffffffffffffffffffffff1673ffffffffffffffffffffffffffffffffffffffff168152602001908152602001600020600701808054600181600116156101000203166002900480601f016020809104026020016040519081016040528092919081815260200182805460018160011615610100020316600290048015610b2a5780601f10610aff57610100808354040283529160200191610b2a565b820191906000526020600020905b815481529060010190602001808311610b0d57829003601f168201915b50505050509050965096509650965096509650965090919293949596565b60026020528060005260406000206000915090508060000160009054906101000a900473ffffffffffffffffffffffffffffffffffffffff16908060010160009054906101000a900473ffffffffffffffffffffffffffffffffffffffff1690806002015490806003015490806004015490806005015490806006015490806007018054600181600116156101000203166002900480601f016020809104026020016040519081016040528092919081815260200182805460018160011615610100020316600290048015610c5e5780601f10610c3357610100808354040283529160200191610c5e565b820191906000526020600020905b815481529060010190602001808311610c4157829003601f168201915b5050505050905088565b600381815481101515610c7757fe5b90600052602060002090600502016000915090508060000160009054906101000a900473ffffffffffffffffffffffffffffffffffffffff16908060010160009054906101000a900473ffffffffffffffffffffffffffffffffffffffff1690806002015490806003015490806004018054600181600116156101000203166002900480601f016020809104026020016040519081016040528092919081815260200182805460018160011615610100020316600290048015610d7b5780601f10610d5057610100808354040283529160200191610d7b565b820191906000526020600020905b815481529060010190602001808311610d5e57829003601f168201915b5050505050905085565b816000803373ffffffffffffffffffffffffffffffffffffffff1673ffffffffffffffffffffffffffffffffffffffff168152602001908152602001600020600201541115610dd357610ef8565b816000803373ffffffffffffffffffffffffffffffffffffffff1673ffffffffffffffffffffffffffffffffffffffff16815260200190815260200160002060020160008282540392505081905550816000808573ffffffffffffffffffffffffffffffffffffffff1673ffffffffffffffffffffffffffffffffffffffff168152602001908152602001600020600201600082825401925050819055503073ffffffffffffffffffffffffffffffffffffffff16632c918d9d33858542866040518663ffffffff167c0100000000000000000000000000000000000000000000000000000000028152600401610ece959493929190611956565b600060405180830381600087803b1515610ee757600080fd5b5af11515610ef457600080fd5b5050505b505050565b6001602052816000526040600020602052806000526040600020600091509150508060000160009054906101000a900473ffffffffffffffffffffffffffffffffffffffff16908060010160009054906101000a900473ffffffffffffffffffffffffffffffffffffffff1690806002015490806003015490806004015490806005015490806006015490806007018054600181600116156101000203166002900480601f0160208091040260200160405190810160405280929190818152602001828054600181600116156101000203166002900480156110205780601f10610ff557610100808354040283529160200191611020565b820191906000526020600020905b81548152906001019060200180831161100357829003601f168201915b5050505050905088565b611032611420565b610100604051908101604052808873ffffffffffffffffffffffffffffffffffffffff1681526020018773ffffffffffffffffffffffffffffffffffffffff16815260200186815260200185815260200184815260200142815260200142815260200183815250905080600160003373ffffffffffffffffffffffffffffffffffffffff1673ffffffffffffffffffffffffffffffffffffffff16815260200190815260200160002060008873ffffffffffffffffffffffffffffffffffffffff1673ffffffffffffffffffffffffffffffffffffffff16815260200190815260200160002060008201518160000160006101000a81548173ffffffffffffffffffffffffffffffffffffffff021916908373ffffffffffffffffffffffffffffffffffffffff16021790555060208201518160010160006101000a81548173ffffffffffffffffffffffffffffffffffffffff021916908373ffffffffffffffffffffffffffffffffffffffff16021790555060408201518160020155606082015181600301556080820151816004015560a0820151816005015560c0820151816006015560e08201518160070190805190602001906111f49291906113a0565b5090505080600260003373ffffffffffffffffffffffffffffffffffffffff1673ffffffffffffffffffffffffffffffffffffffff16815260200190815260200160002060008201518160000160006101000a81548173ffffffffffffffffffffffffffffffffffffffff021916908373ffffffffffffffffffffffffffffffffffffffff16021790555060208201518160010160006101000a81548173ffffffffffffffffffffffffffffffffffffffff021916908373ffffffffffffffffffffffffffffffffffffffff16021790555060408201518160020155606082015181600301556080820151816004015560a0820151816005015560c0820151816006015560e08201518160070190805190602001906113149291906113a0565b509050507f0a662ca63f35aad9325082a085e1429e1bc1471940f49f09df4745359c4602fb33876040516113499291906118d3565b60405180910390a150505050505050565b602060405190810160405280600081525090565b81548183558181151161139b5760050281600502836000526020600020918201910161139a9190611498565b5b505050565b828054600181600116156101000203166002900490600052602060002090601f016020900481019282601f106113e157805160ff191683800117855561140f565b8280016001018555821561140f579182015b8281111561140e5782518255916020019190600101906113f3565b5b50905061141c9190611525565b5090565b61010060405190810160405280600073ffffffffffffffffffffffffffffffffffffffff168152602001600073ffffffffffffffffffffffffffffffffffffffff168152602001600081526020016000815260200160008152602001600081526020016000815260200161149261154a565b81525090565b61152291905b8082111561151e57600080820160006101000a81549073ffffffffffffffffffffffffffffffffffffffff02191690556001820160006101000a81549073ffffffffffffffffffffffffffffffffffffffff021916905560028201600090556003820160009055600482016000611515919061155e565b5060050161149e565b5090565b90565b61154791905b8082111561154357600081600090555060010161152b565b5090565b90565b602060405190810160405280600081525090565b50805460018160011615610100020316600290046000825580601f1061158457506115a3565b601f0160209004906000526020600020908101906115a29190611525565b5b50565b60006115b28235611b7b565b905092915050565b600082601f83011215156115cd57600080fd5b81356115e06115db82611b0f565b611ae2565b915080825260208301602083018583830111156115fc57600080fd5b611607838284611ba5565b50505092915050565b600061161c8235611b9b565b905092915050565b60006020828403121561163657600080fd5b6000611644848285016115a6565b91505092915050565b6000806040838503121561166057600080fd5b600061166e858286016115a6565b925050602061167f858286016115a6565b9150509250929050565b600080600080600060a086880312156116a157600080fd5b60006116af888289016115a6565b95505060206116c0888289016115a6565b94505060406116d188828901611610565b93505060606116e288828901611610565b925050608086013567ffffffffffffffff8111156116ff57600080fd5b61170b888289016115ba565b9150509295509295909350565b60008060008060008060c0878903121561173157600080fd5b600061173f89828a016115a6565b965050602061175089828a016115a6565b955050604061176189828a01611610565b945050606061177289828a01611610565b935050608061178389828a01611610565b92505060a087013567ffffffffffffffff8111156117a057600080fd5b6117ac89828a016115ba565b9150509295509295509295565b6000806000606084860312156117ce57600080fd5b60006117dc868287016115a6565b93505060206117ed86828701611610565b925050604084013567ffffffffffffffff81111561180a57600080fd5b611816868287016115ba565b9150509250925092565b60006020828403121561183257600080fd5b600061184084828501611610565b91505092915050565b61185281611b51565b82525050565b600061186382611b46565b808452611877816020860160208601611bb4565b61188081611be7565b602085010191505092915050565b600061189982611b3b565b8084526118ad816020860160208601611bb4565b6118b681611be7565b602085010191505092915050565b6118cd81611b71565b82525050565b60006040820190506118e86000830185611849565b6118f56020830184611849565b9392505050565b600060a0820190506119116000830188611849565b61191e6020830187611849565b61192b60408301866118c4565b61193860608301856118c4565b818103608083015261194a818461188e565b90509695505050505050565b600060a08201905061196b6000830188611849565b6119786020830187611849565b61198560408301866118c4565b61199260608301856118c4565b81810360808301526119a48184611858565b90509695505050505050565b600060e0820190506119c5600083018a611849565b6119d26020830189611849565b6119df60408301886118c4565b6119ec60608301876118c4565b6119f960808301866118c4565b611a0660a08301856118c4565b81810360c0830152611a188184611858565b905098975050505050505050565b600061010082019050611a3c600083018b611849565b611a49602083018a611849565b611a5660408301896118c4565b611a6360608301886118c4565b611a7060808301876118c4565b611a7d60a08301866118c4565b611a8a60c08301856118c4565b81810360e0830152611a9c818461188e565b90509998505050505050505050565b6000606082019050611ac06000830186611849565b611acd60208301856118c4565b611ada60408301846118c4565b949350505050565b6000604051905081810181811067ffffffffffffffff82111715611b0557600080fd5b8060405250919050565b600067ffffffffffffffff821115611b2657600080fd5b601f19601f8301169050602081019050919050565b600081519050919050565b600081519050919050565b600073ffffffffffffffffffffffffffffffffffffffff82169050919050565b6000819050919050565b600073ffffffffffffffffffffffffffffffffffffffff82169050919050565b6000819050919050565b82818337600083830152505050565b60005b83811015611bd2578082015181840152602081019050611bb7565b83811115611be1576000848401525b50505050565b6000601f19601f83011690509190505600a265627a7a723058203d2d44c07fa4308353342fde63988f37048d54017a4720c8f4a2ea6da2e4e0646c6578706572696d656e74616cf50037",
  "source": "pragma solidity ^0.4.2;\r\npragma experimental ABIEncoderV2;\r\n\r\ncontract BusinessContract {\r\n\r\n    //合同内容\r\n    struct Content{\r\n        //合约ID (用户地址加上用户ID)\r\n        //string contractId;\r\n\r\n        //甲方地址\r\n        address firstParty;\r\n\r\n        //乙方地址\r\n        address secondParty;\r\n\r\n        //甲方ID\r\n        uint userId;\r\n\r\n        //分润点 0-100 %\r\n        uint shareProfit;\r\n\r\n        //有效时间  N 年\r\n        uint expireYear;\r\n\r\n        //交易哈希值\r\n        uint txHash;\r\n\r\n        //交易时间戳\r\n        uint timestamp;\r\n\r\n        //备注\r\n        string remark;\r\n\r\n    }\r\n\r\n    //用户资金账户\r\n    struct Account{\r\n\r\n        //用户地址\r\n        address userAddress;\r\n\r\n        //用户ID\r\n        uint userId;\r\n\r\n        //余额    精确至分 换算成元  balance/100\r\n        uint balance;\r\n    }\r\n\r\n\r\n    //交易记录\r\n    struct Transaction{\r\n        //发起人地址\r\n        address from;\r\n\r\n        //接收方地址\r\n        address to;\r\n\r\n        //交易金额\r\n        uint amount;\r\n\r\n        //交易时间\r\n        uint timestamp;\r\n\r\n        //备注\r\n        string remark;\r\n\r\n        //附加数据\r\n        //byte[] data;\r\n\r\n    }\r\n\r\n    //资金账户数据\r\n    mapping (address=>Account) public  accounts;\r\n\r\n    //合约内容数据\r\n    mapping (address=>mapping (address=>Content)) public  contents;\r\n    mapping (address=>Content) public  cos;\r\n\r\n\r\n    //交易记录\r\n    Transaction[] public transactions;\r\n\r\n\r\n    //合约事件\r\n    event Save(address firstParty,address secondParty);\r\n\r\n    //签署合约\r\n    function signContract(address firstParty,address secondParty,uint userId,uint shareProfit,uint expireYear,string remark) public{\r\n\r\n        Content memory con=Content(firstParty,secondParty,userId,shareProfit,expireYear,now,now,remark);\r\n\r\n        contents[msg.sender][secondParty]=con;\r\n        cos[msg.sender]=con;\r\n\r\n       emit Save(msg.sender,secondParty);\r\n    }\r\n\r\n    //用户获取合约签署列表\r\n    function getContracts(address secondParty) public  returns(address firstParty,address secondParty1,uint userId,uint shareProfit,uint expireYear,uint timestamp,string remark){\r\n       return ( contents[msg.sender][secondParty].firstParty,contents[msg.sender][secondParty].secondParty,contents[msg.sender][secondParty].userId,\r\n                contents[msg.sender][secondParty].shareProfit,contents[msg.sender][secondParty].expireYear,contents[msg.sender][secondParty].timestamp,contents[msg.sender][secondParty].remark);\r\n    }\r\n\r\n    //用户获取合约签署列表\r\n    function getContract() public  returns(address firstParty,address secondParty1,uint userId,uint shareProfit,\r\n                                                                   uint expireYear,uint timestamp,string remark){\r\n       return ( cos[msg.sender].firstParty,cos[msg.sender].secondParty,cos[msg.sender].userId,\r\n                cos[msg.sender].shareProfit,cos[msg.sender].expireYear,cos[msg.sender].timestamp,cos[msg.sender].remark);\r\n    }\r\n\r\n     //发起交易\r\n    function transform(address to,uint amount,string remark) public{\r\n        if(accounts[msg.sender].balance>amount){\r\n            return;\r\n        }\r\n        accounts[msg.sender].balance-=amount;\r\n        accounts[to].balance+=amount;\r\n        this.takerecord(msg.sender,to,amount,now,remark);\r\n    }\r\n\r\n    //记录交易内容\r\n    function takerecord(address from,address to,uint amount,uint timestamp,string remark){\r\n        transactions.push(Transaction(from,to,amount,timestamp,remark));\r\n    }\r\n\r\n    //根据发送人或者接收人查看交易记录\r\n  /*  function getTransactions(address from,address to,uint userId) public view returns(Transaction[] vars){\r\n      Transaction[] tras;\r\n      for (uint i = 0; i<transactions.length; i++) {\r\n          Transaction t=transactions[i];\r\n          if(t.from==from||t.to==to){\r\n              tras.push(t);\r\n          }\r\n      }\r\n      return tras;\r\n    }\r\n    */\r\n}",
  "sourcePath": "D:\\dapps\\pet-shop\\contracts\\BusinessContract.sol",
  "compiler": {
    "name": "solc",
    "version": "0.4.21+commit.dfe3193c.Emscripten.clang"
  },
  "schemaVersion": "2.0.0",
  "updatedAt": "2018-04-20T07:48:44.456Z"
}