{
  "contractName": "PunchClock",
  "abi": [
    {
      "inputs": [],
      "payable": false,
      "stateMutability": "nonpayable",
      "type": "constructor"
    },
    {
      "anonymous": false,
      "inputs": [
        {
          "indexed": true,
          "name": "admin",
          "type": "address"
        }
      ],
      "name": "AdminAdded",
      "type": "event"
    },
    {
      "anonymous": false,
      "inputs": [
        {
          "indexed": true,
          "name": "member",
          "type": "address"
        }
      ],
      "name": "MemberAdded",
      "type": "event"
    },
    {
      "anonymous": false,
      "inputs": [
        {
          "indexed": true,
          "name": "admin",
          "type": "address"
        }
      ],
      "name": "AdminRemoved",
      "type": "event"
    },
    {
      "anonymous": false,
      "inputs": [
        {
          "indexed": true,
          "name": "member",
          "type": "address"
        }
      ],
      "name": "MemberRemoved",
      "type": "event"
    },
    {
      "anonymous": false,
      "inputs": [
        {
          "indexed": true,
          "name": "member",
          "type": "address"
        },
        {
          "indexed": false,
          "name": "inTime",
          "type": "uint64"
        }
      ],
      "name": "PunchedIn",
      "type": "event"
    },
    {
      "anonymous": false,
      "inputs": [
        {
          "indexed": true,
          "name": "member",
          "type": "address"
        },
        {
          "indexed": false,
          "name": "outTime",
          "type": "uint64"
        }
      ],
      "name": "PunchedOut",
      "type": "event"
    },
    {
      "anonymous": false,
      "inputs": [
        {
          "indexed": true,
          "name": "oldOwner",
          "type": "address"
        },
        {
          "indexed": true,
          "name": "newOwner",
          "type": "address"
        }
      ],
      "name": "OwnerChanged",
      "type": "event"
    },
    {
      "constant": false,
      "inputs": [
        {
          "name": "admin",
          "type": "address"
        }
      ],
      "name": "addAdmin",
      "outputs": [],
      "payable": false,
      "stateMutability": "nonpayable",
      "type": "function"
    },
    {
      "constant": false,
      "inputs": [
        {
          "name": "member",
          "type": "address"
        }
      ],
      "name": "addMember",
      "outputs": [],
      "payable": false,
      "stateMutability": "nonpayable",
      "type": "function"
    },
    {
      "constant": true,
      "inputs": [],
      "name": "getMyPunchCards",
      "outputs": [
        {
          "name": "punchCards",
          "type": "uint64[2][]"
        }
      ],
      "payable": false,
      "stateMutability": "view",
      "type": "function"
    },
    {
      "constant": true,
      "inputs": [
        {
          "name": "member",
          "type": "address"
        }
      ],
      "name": "getPunchCardsOf",
      "outputs": [
        {
          "name": "punchcards",
          "type": "uint64[2][]"
        }
      ],
      "payable": false,
      "stateMutability": "view",
      "type": "function"
    },
    {
      "constant": true,
      "inputs": [],
      "name": "getAllMembers",
      "outputs": [
        {
          "name": "",
          "type": "address[]"
        }
      ],
      "payable": false,
      "stateMutability": "view",
      "type": "function"
    },
    {
      "constant": true,
      "inputs": [],
      "name": "getAllAdmins",
      "outputs": [
        {
          "name": "",
          "type": "address[]"
        }
      ],
      "payable": false,
      "stateMutability": "view",
      "type": "function"
    },
    {
      "constant": true,
      "inputs": [],
      "name": "getOwner",
      "outputs": [
        {
          "name": "",
          "type": "address"
        }
      ],
      "payable": false,
      "stateMutability": "view",
      "type": "function"
    },
    {
      "constant": false,
      "inputs": [
        {
          "name": "member",
          "type": "address"
        },
        {
          "name": "inTime",
          "type": "uint64"
        }
      ],
      "name": "punchIn",
      "outputs": [],
      "payable": false,
      "stateMutability": "nonpayable",
      "type": "function"
    },
    {
      "constant": false,
      "inputs": [
        {
          "name": "member",
          "type": "address"
        },
        {
          "name": "outTime",
          "type": "uint64"
        }
      ],
      "name": "punchOut",
      "outputs": [],
      "payable": false,
      "stateMutability": "nonpayable",
      "type": "function"
    },
    {
      "constant": false,
      "inputs": [
        {
          "name": "admin",
          "type": "address"
        }
      ],
      "name": "removeAdmin",
      "outputs": [],
      "payable": false,
      "stateMutability": "nonpayable",
      "type": "function"
    },
    {
      "constant": false,
      "inputs": [
        {
          "name": "member",
          "type": "address"
        }
      ],
      "name": "removeMember",
      "outputs": [],
      "payable": false,
      "stateMutability": "nonpayable",
      "type": "function"
    },
    {
      "constant": true,
      "inputs": [
        {
          "name": "person",
          "type": "address"
        }
      ],
      "name": "isMember",
      "outputs": [
        {
          "name": "",
          "type": "bool"
        }
      ],
      "payable": false,
      "stateMutability": "view",
      "type": "function"
    },
    {
      "constant": true,
      "inputs": [
        {
          "name": "person",
          "type": "address"
        }
      ],
      "name": "isAdmin",
      "outputs": [
        {
          "name": "",
          "type": "bool"
        }
      ],
      "payable": false,
      "stateMutability": "view",
      "type": "function"
    },
    {
      "constant": false,
      "inputs": [
        {
          "name": "newOwner",
          "type": "address"
        }
      ],
      "name": "changeOwner",
      "outputs": [],
      "payable": false,
      "stateMutability": "nonpayable",
      "type": "function"
    },
    {
      "constant": false,
      "inputs": [],
      "name": "destroy",
      "outputs": [],
      "payable": false,
      "stateMutability": "nonpayable",
      "type": "function"
    }
  ],
  "bytecode": "0x606060405234156200001057600080fd5b336000806101000a81548173ffffffffffffffffffffffffffffffffffffffff021916908373ffffffffffffffffffffffffffffffffffffffff160217905550620000906000809054906101000a900473ffffffffffffffffffffffffffffffffffffffff16620000966401000000000262000e08176401000000009004565b62000450565b60008060009054906101000a900473ffffffffffffffffffffffffffffffffffffffff1673ffffffffffffffffffffffffffffffffffffffff163373ffffffffffffffffffffffffffffffffffffffff16141515620000f457600080fd5b60001515600160008473ffffffffffffffffffffffffffffffffffffffff1673ffffffffffffffffffffffffffffffffffffffff16815260200190815260200160002060009054906101000a900460ff1615151415620002ce57600360009054906101000a900467ffffffffffffffff16905060018060008473ffffffffffffffffffffffffffffffffffffffff1673ffffffffffffffffffffffffffffffffffffffff16815260200190815260200160002060006101000a81548160ff02191690831515021790555081600260008367ffffffffffffffff1667ffffffffffffffff16815260200190815260200160002060006101000a81548173ffffffffffffffffffffffffffffffffffffffff021916908373ffffffffffffffffffffffffffffffffffffffff1602179055506003600081819054906101000a900467ffffffffffffffff168092919060010191906101000a81548167ffffffffffffffff021916908367ffffffffffffffff160217905550506200028a82620002d26401000000000262001d49176401000000009004565b8173ffffffffffffffffffffffffffffffffffffffff167f44d6d25963f097ad14f29f06854a01f575648a1ef82f30e562ccd3889717e33960405160405180910390a25b5050565b6000801515600460008473ffffffffffffffffffffffffffffffffffffffff1673ffffffffffffffffffffffffffffffffffffffff16815260200190815260200160002060009054906101000a900460ff16151514156200044c57600660009054906101000a900467ffffffffffffffff1690506001600460008473ffffffffffffffffffffffffffffffffffffffff1673ffffffffffffffffffffffffffffffffffffffff16815260200190815260200160002060006101000a81548160ff02191690831515021790555081600560008367ffffffffffffffff1667ffffffffffffffff16815260200190815260200160002060006101000a81548173ffffffffffffffffffffffffffffffffffffffff021916908373ffffffffffffffffffffffffffffffffffffffff1602179055506006600081819054906101000a900467ffffffffffffffff168092919060010191906101000a81548167ffffffffffffffff021916908367ffffffffffffffff160217905550505b5050565b61202680620004606000396000f3006060604052600436106100db576000357c0100000000000000000000000000000000000000000000000000000000900463ffffffff1680630b1ca49a146100e05780630f2dabca146101195780631785f53c1461016557806324d7806c1461019e57806337ac8236146101ef57806370480275146102a0578063739e40b7146102d95780637c0f6b35146103665780637f191255146103d057806383197ef01461041c578063893d20e814610431578063a230c52414610486578063a6f9dae1146104d7578063ca6d56dc14610510578063e9523c9714610549575b600080fd5b34156100eb57600080fd5b610117600480803573ffffffffffffffffffffffffffffffffffffffff169060200190919050506105b3565b005b341561012457600080fd5b610163600480803573ffffffffffffffffffffffffffffffffffffffff1690602001909190803567ffffffffffffffff169060200190919050506107bb565b005b341561017057600080fd5b61019c600480803573ffffffffffffffffffffffffffffffffffffffff16906020019091905050610b91565b005b34156101a957600080fd5b6101d5600480803573ffffffffffffffffffffffffffffffffffffffff16906020019091905050610d3c565b604051808215151515815260200191505060405180910390f35b34156101fa57600080fd5b610226600480803573ffffffffffffffffffffffffffffffffffffffff16906020019091905050610d92565b60405180806020018281038252838181518152602001915080516000925b8184101561028f57828490602001906020020151600260200280838360005b8381101561027e578082015181840152602081019050610263565b505050509050019260010192610244565b925050509250505060405180910390f35b34156102ab57600080fd5b6102d7600480803573ffffffffffffffffffffffffffffffffffffffff16906020019091905050610e08565b005b34156102e457600080fd5b6102ec61102c565b60405180806020018281038252838181518152602001915080516000925b8184101561035557828490602001906020020151600260200280838360005b83811015610344578082015181840152602081019050610329565b50505050905001926001019261030a565b925050509250505060405180910390f35b341561037157600080fd5b6103796110a0565b6040518080602001828103825283818151815260200191508051906020019060200280838360005b838110156103bc5780820151818401526020810190506103a1565b505050509050019250505060405180910390f35b34156103db57600080fd5b61041a600480803573ffffffffffffffffffffffffffffffffffffffff1690602001909190803567ffffffffffffffff169060200190919050506112a6565b005b341561042757600080fd5b61042f611688565b005b341561043c57600080fd5b61044461171d565b604051808273ffffffffffffffffffffffffffffffffffffffff1673ffffffffffffffffffffffffffffffffffffffff16815260200191505060405180910390f35b341561049157600080fd5b6104bd600480803573ffffffffffffffffffffffffffffffffffffffff16906020019091905050611746565b604051808215151515815260200191505060405180910390f35b34156104e257600080fd5b61050e600480803573ffffffffffffffffffffffffffffffffffffffff1690602001909190505061179c565b005b341561051b57600080fd5b610547600480803573ffffffffffffffffffffffffffffffffffffffff169060200190919050506118c4565b005b341561055457600080fd5b61055c611971565b6040518080602001828103825283818151815260200191508051906020019060200280838360005b8381101561059f578082015181840152602081019050610584565b505050509050019250505060405180910390f35b60001515600160003373ffffffffffffffffffffffffffffffffffffffff1673ffffffffffffffffffffffffffffffffffffffff16815260200190815260200160002060009054906101000a900460ff161515141561061157600080fd5b60011515600460008373ffffffffffffffffffffffffffffffffffffffff1673ffffffffffffffffffffffffffffffffffffffff16815260200190815260200160002060009054906101000a900460ff16151514156106c3576000600460008373ffffffffffffffffffffffffffffffffffffffff1673ffffffffffffffffffffffffffffffffffffffff16815260200190815260200160002060006101000a81548160ff0219169083151502179055505b60011515600160008373ffffffffffffffffffffffffffffffffffffffff1673ffffffffffffffffffffffffffffffffffffffff16815260200190815260200160002060009054906101000a900460ff1615151415610775576000600160008373ffffffffffffffffffffffffffffffffffffffff1673ffffffffffffffffffffffffffffffffffffffff16815260200190815260200160002060006101000a81548160ff0219169083151502179055505b8073ffffffffffffffffffffffffffffffffffffffff167f6e76fb4c77256006d9c38ec7d82b45a8c8f3c27b1d6766fffc42dfb8de68449260405160405180910390a250565b60006107c5611ec6565b60001515600160003373ffffffffffffffffffffffffffffffffffffffff1673ffffffffffffffffffffffffffffffffffffffff16815260200190815260200160002060009054906101000a900460ff161515141561082357600080fd5b60001515600460008673ffffffffffffffffffffffffffffffffffffffff1673ffffffffffffffffffffffffffffffffffffffff16815260200190815260200160002060009054906101000a900460ff161515141561088157600080fd5b600760008573ffffffffffffffffffffffffffffffffffffffff1673ffffffffffffffffffffffffffffffffffffffff1681526020019081526020016000209150600082805490501115610a3b5761098f82805480602002602001604051908101604052809291908181526020016000905b8282101561098657838290600052602060002090016040805190810160405290816000820160009054906101000a900467ffffffffffffffff1667ffffffffffffffff1667ffffffffffffffff1681526020016000820160089054906101000a900467ffffffffffffffff1667ffffffffffffffff1667ffffffffffffffff1681525050815260200190600101906108f3565b50505050611b75565b90506000816020015167ffffffffffffffff161415610a3a576001600760008673ffffffffffffffffffffffffffffffffffffffff1673ffffffffffffffffffffffffffffffffffffffff1681526020019081526020016000208054905003600760008673ffffffffffffffffffffffffffffffffffffffff1673ffffffffffffffffffffffffffffffffffffffff16815260200190815260200160002081610a389190611ef4565b505b5b600760008573ffffffffffffffffffffffffffffffffffffffff1673ffffffffffffffffffffffffffffffffffffffff1681526020019081526020016000208054806001018281610a8c9190611f20565b9160005260206000209001600060408051908101604052808767ffffffffffffffff168152602001600067ffffffffffffffff16815250909190915060008201518160000160006101000a81548167ffffffffffffffff021916908367ffffffffffffffff16021790555060208201518160000160086101000a81548167ffffffffffffffff021916908367ffffffffffffffff1602179055505050508373ffffffffffffffffffffffffffffffffffffffff167f9b27daf6e47903f13f45017945d347e64a02a5cadcad1827e0ede187b5ef697c84604051808267ffffffffffffffff1667ffffffffffffffff16815260200191505060405180910390a250505050565b6000809054906101000a900473ffffffffffffffffffffffffffffffffffffffff1673ffffffffffffffffffffffffffffffffffffffff163373ffffffffffffffffffffffffffffffffffffffff16141515610bec57600080fd5b60011515600160008373ffffffffffffffffffffffffffffffffffffffff1673ffffffffffffffffffffffffffffffffffffffff16815260200190815260200160002060009054906101000a900460ff1615151415610cf6576000600160008373ffffffffffffffffffffffffffffffffffffffff1673ffffffffffffffffffffffffffffffffffffffff16815260200190815260200160002060006101000a81548160ff0219169083151502179055506000600460008373ffffffffffffffffffffffffffffffffffffffff1673ffffffffffffffffffffffffffffffffffffffff16815260200190815260200160002060006101000a81548160ff0219169083151502179055505b8073ffffffffffffffffffffffffffffffffffffffff167fa3b62bc36326052d97ea62d63c3d60308ed4c3ea8ac079dd8499f1e9c4f80c0f60405160405180910390a250565b6000600160008373ffffffffffffffffffffffffffffffffffffffff1673ffffffffffffffffffffffffffffffffffffffff16815260200190815260200160002060009054906101000a900460ff169050919050565b610d9a611f4c565b60001515600160003373ffffffffffffffffffffffffffffffffffffffff1673ffffffffffffffffffffffffffffffffffffffff16815260200190815260200160002060009054906101000a900460ff1615151415610df857600080fd5b610e0182611ba0565b9050919050565b60008060009054906101000a900473ffffffffffffffffffffffffffffffffffffffff1673ffffffffffffffffffffffffffffffffffffffff163373ffffffffffffffffffffffffffffffffffffffff16141515610e6557600080fd5b60001515600160008473ffffffffffffffffffffffffffffffffffffffff1673ffffffffffffffffffffffffffffffffffffffff16815260200190815260200160002060009054906101000a900460ff161515141561102857600360009054906101000a900467ffffffffffffffff16905060018060008473ffffffffffffffffffffffffffffffffffffffff1673ffffffffffffffffffffffffffffffffffffffff16815260200190815260200160002060006101000a81548160ff02191690831515021790555081600260008367ffffffffffffffff1667ffffffffffffffff16815260200190815260200160002060006101000a81548173ffffffffffffffffffffffffffffffffffffffff021916908373ffffffffffffffffffffffffffffffffffffffff1602179055506003600081819054906101000a900467ffffffffffffffff168092919060010191906101000a81548167ffffffffffffffff021916908367ffffffffffffffff16021790555050610fe482611d49565b8173ffffffffffffffffffffffffffffffffffffffff167f44d6d25963f097ad14f29f06854a01f575648a1ef82f30e562ccd3889717e33960405160405180910390a25b5050565b611034611f4c565b60001515600460003373ffffffffffffffffffffffffffffffffffffffff1673ffffffffffffffffffffffffffffffffffffffff16815260200190815260200160002060009054906101000a900460ff161515141561109257600080fd5b61109b33611ba0565b905090565b6110a8611f60565b6110b0611f60565b6000806000801515600160003373ffffffffffffffffffffffffffffffffffffffff1673ffffffffffffffffffffffffffffffffffffffff16815260200190815260200160002060009054906101000a900460ff161515141561111257600080fd5b600660009054906101000a900467ffffffffffffffff1667ffffffffffffffff166040518059106111405750595b9080825280602002602001820160405250935060009250600091505b600660009054906101000a900467ffffffffffffffff1667ffffffffffffffff168267ffffffffffffffff16101561129c57600560008367ffffffffffffffff1667ffffffffffffffff16815260200190815260200160002060009054906101000a900473ffffffffffffffffffffffffffffffffffffffff16905060011515600460008373ffffffffffffffffffffffffffffffffffffffff1673ffffffffffffffffffffffffffffffffffffffff16815260200190815260200160002060009054906101000a900460ff161515141561128f5780848467ffffffffffffffff1681518110151561124a57fe5b9060200190602002019073ffffffffffffffffffffffffffffffffffffffff16908173ffffffffffffffffffffffffffffffffffffffff168152505082806001019350505b818060010192505061115c565b8394505050505090565b60006112b0611ec6565b60001515600160003373ffffffffffffffffffffffffffffffffffffffff1673ffffffffffffffffffffffffffffffffffffffff16815260200190815260200160002060009054906101000a900460ff161515141561130e57600080fd5b60001515600460008673ffffffffffffffffffffffffffffffffffffffff1673ffffffffffffffffffffffffffffffffffffffff16815260200190815260200160002060009054906101000a900460ff161515141561136c57600080fd5b600760008573ffffffffffffffffffffffffffffffffffffffff1673ffffffffffffffffffffffffffffffffffffffff16815260200190815260200160002091506000828054905014156113bf57600080fd5b61147f82805480602002602001604051908101604052809291908181526020016000905b8282101561147657838290600052602060002090016040805190810160405290816000820160009054906101000a900467ffffffffffffffff1667ffffffffffffffff1667ffffffffffffffff1681526020016000820160089054906101000a900467ffffffffffffffff1667ffffffffffffffff1667ffffffffffffffff1681525050815260200190600101906113e3565b50505050611b75565b90506000816020015167ffffffffffffffff1614151561149e57600080fd5b6001600760008673ffffffffffffffffffffffffffffffffffffffff1673ffffffffffffffffffffffffffffffffffffffff1681526020019081526020016000208054905003600760008673ffffffffffffffffffffffffffffffffffffffff1673ffffffffffffffffffffffffffffffffffffffff1681526020019081526020016000208161152e9190611ef4565b50600760008573ffffffffffffffffffffffffffffffffffffffff1673ffffffffffffffffffffffffffffffffffffffff16815260200190815260200160002080548060010182816115809190611f20565b916000526020600020900160006040805190810160405280856000015167ffffffffffffffff1681526020018767ffffffffffffffff16815250909190915060008201518160000160006101000a81548167ffffffffffffffff021916908367ffffffffffffffff16021790555060208201518160000160086101000a81548167ffffffffffffffff021916908367ffffffffffffffff1602179055505050508373ffffffffffffffffffffffffffffffffffffffff167f822533a0e44e9d11dd0f6dbcc6e4342995ff0988152c5c30aa0e53eec723276c84604051808267ffffffffffffffff1667ffffffffffffffff16815260200191505060405180910390a250505050565b6000809054906101000a900473ffffffffffffffffffffffffffffffffffffffff1673ffffffffffffffffffffffffffffffffffffffff163373ffffffffffffffffffffffffffffffffffffffff161415156116e357600080fd5b6000809054906101000a900473ffffffffffffffffffffffffffffffffffffffff1673ffffffffffffffffffffffffffffffffffffffff16ff5b60008060009054906101000a900473ffffffffffffffffffffffffffffffffffffffff16905090565b6000600460008373ffffffffffffffffffffffffffffffffffffffff1673ffffffffffffffffffffffffffffffffffffffff16815260200190815260200160002060009054906101000a900460ff169050919050565b60008060009054906101000a900473ffffffffffffffffffffffffffffffffffffffff1673ffffffffffffffffffffffffffffffffffffffff163373ffffffffffffffffffffffffffffffffffffffff161415156117f957600080fd5b61180282610e08565b6000809054906101000a900473ffffffffffffffffffffffffffffffffffffffff169050816000806101000a81548173ffffffffffffffffffffffffffffffffffffffff021916908373ffffffffffffffffffffffffffffffffffffffff1602179055508173ffffffffffffffffffffffffffffffffffffffff168173ffffffffffffffffffffffffffffffffffffffff167fb532073b38c83145e3e5135377a08bf9aab55bc0fd7c1179cd4fb995d2a5159c60405160405180910390a35050565b60001515600160003373ffffffffffffffffffffffffffffffffffffffff1673ffffffffffffffffffffffffffffffffffffffff16815260200190815260200160002060009054906101000a900460ff161515141561192257600080fd5b61192b81611d49565b8073ffffffffffffffffffffffffffffffffffffffff167fb251eb052afc73ffd02ffe85ad79990a8b3fed60d76dbc2fa2fdd7123dffd91460405160405180910390a250565b611979611f60565b611981611f60565b60008060008060009054906101000a900473ffffffffffffffffffffffffffffffffffffffff1673ffffffffffffffffffffffffffffffffffffffff163373ffffffffffffffffffffffffffffffffffffffff161415156119e157600080fd5b600360009054906101000a900467ffffffffffffffff1667ffffffffffffffff16604051805910611a0f5750595b9080825280602002602001820160405250935060009250600091505b600360009054906101000a900467ffffffffffffffff1667ffffffffffffffff168267ffffffffffffffff161015611b6b57600260008367ffffffffffffffff1667ffffffffffffffff16815260200190815260200160002060009054906101000a900473ffffffffffffffffffffffffffffffffffffffff16905060011515600160008373ffffffffffffffffffffffffffffffffffffffff1673ffffffffffffffffffffffffffffffffffffffff16815260200190815260200160002060009054906101000a900460ff1615151415611b5e5780848467ffffffffffffffff16815181101515611b1957fe5b9060200190602002019073ffffffffffffffffffffffffffffffffffffffff16908173ffffffffffffffffffffffffffffffffffffffff168152505082806001019350505b8180600101925050611a2b565b8394505050505090565b611b7d611ec6565b816001835103815181101515611b8f57fe5b906020019060200201519050919050565b611ba8611f4c565b6000611bb2611f4c565b6000600760008673ffffffffffffffffffffffffffffffffffffffff1673ffffffffffffffffffffffffffffffffffffffff16815260200190815260200160002092508280549050604051805910611c075750595b908082528060200260200182016040528015611c3d57816020015b611c2a611f74565b815260200190600190039081611c225790505b509150600090505b82805490508167ffffffffffffffff161015611d3e576040805190810160405280848367ffffffffffffffff16815481101515611c7e57fe5b906000526020600020900160000160009054906101000a900467ffffffffffffffff1667ffffffffffffffff1667ffffffffffffffff168152602001848367ffffffffffffffff16815481101515611cd257fe5b906000526020600020900160000160089054906101000a900467ffffffffffffffff1667ffffffffffffffff1667ffffffffffffffff16815250828267ffffffffffffffff16815181101515611d2457fe5b906020019060200201819052508080600101915050611c45565b819350505050919050565b6000801515600460008473ffffffffffffffffffffffffffffffffffffffff1673ffffffffffffffffffffffffffffffffffffffff16815260200190815260200160002060009054906101000a900460ff1615151415611ec257600660009054906101000a900467ffffffffffffffff1690506001600460008473ffffffffffffffffffffffffffffffffffffffff1673ffffffffffffffffffffffffffffffffffffffff16815260200190815260200160002060006101000a81548160ff02191690831515021790555081600560008367ffffffffffffffff1667ffffffffffffffff16815260200190815260200160002060006101000a81548173ffffffffffffffffffffffffffffffffffffffff021916908373ffffffffffffffffffffffffffffffffffffffff1602179055506006600081819054906101000a900467ffffffffffffffff168092919060010191906101000a81548167ffffffffffffffff021916908367ffffffffffffffff160217905550505b5050565b6040805190810160405280600067ffffffffffffffff168152602001600067ffffffffffffffff1681525090565b815481835581811511611f1b57818360005260206000209182019101611f1a9190611fa5565b5b505050565b815481835581811511611f4757818360005260206000209182019101611f469190611fa5565b5b505050565b602060405190810160405280600081525090565b602060405190810160405280600081525090565b60408051908101604052806002905b600067ffffffffffffffff16815260200190600190039081611f835790505090565b611ff791905b80821115611ff357600080820160006101000a81549067ffffffffffffffff02191690556000820160086101000a81549067ffffffffffffffff021916905550600101611fab565b5090565b905600a165627a7a723058209c8c4d42ef55d94febfc0aa7e50c8025211f7e7dd00fb9362fd362ee68fd49420029",
  "source": "pragma solidity ^0.4.4;\n\ncontract PunchClock {\n    // the owner of the contract\n    address owner;\n\n    // The data structure to store the time in and out of a person\n    struct PunchCard {\n        uint64 timeIn; // time the person gets in, unix timestamp\n        uint64 timeOut; // time the person gets out, unix timestamp\n    }\n\n    // The list of all admins. The reason for having these two mapping is that\n    // it's not possible to iterate through the list of keys in a mapping,\n    // so the workaround is to have two mapping, with the second mapping is basically\n    // just a map by index so that we can get all the keys. Similarly, it's not\n    // possible to iterate through a mapping, so the workaround is to keep track\n    // of the size manually.\n    mapping(address => bool) admins;\n    mapping(uint64 => address) adminsByIndex;\n    uint64 totalNumberOfAdmins;\n\n    // The list of all members.\n    mapping(address => bool) members;\n    mapping(uint64 => address) membersByIndex;\n    uint64 totalNumberOfMembers;\n\n    // All punch cards of all members\n    mapping(address => PunchCard[]) punchClock;\n    \n    // events\n    event AdminAdded(address indexed admin);\n    event MemberAdded(address indexed member);\n    event AdminRemoved(address indexed admin);\n    event MemberRemoved(address indexed member);\n    event PunchedIn(address indexed member, uint64 inTime);\n    event PunchedOut(address indexed member, uint64 outTime);\n    event OwnerChanged(address indexed oldOwner, address indexed newOwner);\n\n    // Constructor, create a new punch clock and assign the creator as the owner of the punch clock\n    function PunchClock() {\n        owner = msg.sender;\n        addAdmin(owner);\n    }\n\n    modifier onlyOwner() {\n        if (msg.sender != owner) throw;\n        _;\n    }\n    modifier onlyAdmins() {\n        if (admins[msg.sender] == false) throw;\n        _;\n    }\n    modifier onlyMembers() {\n        if (members[msg.sender] == false) throw;\n        _;\n    }\n\n    // Add a member to the contract if the member does not already exist\n    function addMemberInternal(address member) internal {\n        if (members[member] == false) {\n            var newMemberIndex = totalNumberOfMembers;\n            members[member] = true;\n            membersByIndex[newMemberIndex] = member;\n            totalNumberOfMembers++;\n        }\n    }\n    // Add a new admin. Only the owner can perform this task.\n    function addAdmin(address admin) onlyOwner {\n        if (admins[admin] == false) {\n            var indexOfNewAdmin = totalNumberOfAdmins;\n            admins[admin] = true;\n            adminsByIndex[indexOfNewAdmin] = admin;\n            totalNumberOfAdmins++;\n\n            addMemberInternal(admin);\n            AdminAdded(admin);\n        }\n    }\n\n    // Add a new member to the list of member. Only admins can perform this task\n    function addMember(address member) onlyAdmins {\n        addMemberInternal(member);\n        MemberAdded(member);\n    }\n\n    // Return all punch cards of a member\n    function getPunchCardsInternal(address member) constant internal returns(uint64[2][]) {\n        var allCards = punchClock[member];\n        uint64[2][] memory tmp = new uint64[2][](allCards.length);\n        for (uint64 i = 0; i < allCards.length; i++) {\n            tmp[i] = [allCards[i].timeIn, allCards[i].timeOut];\n        }\n        return tmp;\n    }\n\n    // Return all punch cards of the requestor. Only member can perform this task\n    function getMyPunchCards() onlyMembers constant returns(uint64[2][] punchCards) {\n        return getPunchCardsInternal(msg.sender);\n    }\n\n    // Return all punch cards of a member. Only admin can perform this task\n    function getPunchCardsOf(address member) onlyAdmins constant returns(uint64[2][] punchcards) {\n        return getPunchCardsInternal(member);\n    }\n\n    // Return all members in the contract. Only admins can perform this task.\n    function getAllMembers() onlyAdmins constant returns(address[]) {\n        address[] memory allMembers = new address[](totalNumberOfMembers);\n        uint64 j = 0;\n        for (uint64 i = 0; i < totalNumberOfMembers; i++) {\n            address member = membersByIndex[i];\n            if (members[member] == true) {\n                allMembers[j] = member;\n                j++;\n            }\n        }\n        return allMembers;\n    }\n\n    // Return all admins in the contract. Only owner can perform this task.\n    function getAllAdmins() onlyOwner constant returns(address[]) {\n        address[] memory allAdmins = new address[](totalNumberOfAdmins);\n        uint64 j = 0;\n        for (uint64 i = 0; i < totalNumberOfAdmins; i++) {\n            address admin = adminsByIndex[i];\n            if (admins[admin] == true) {\n                allAdmins[j] = admin;\n                j++;\n            } \n        }\n        return allAdmins;\n    }\n\n    // Return the owner of the contract. Anyone can perform this task.\n    function getOwner() constant returns(address) {\n        return owner;\n    }\n\n    // Helper function to get the last element in an array\n    function getLast(PunchCard[] punchCards) constant internal returns(PunchCard) {\n        return punchCards[punchCards.length - 1];\n    }\n\n    // Register an in time for a member. Only admins can perform this task.\n    function punchIn(address member, uint64 inTime) onlyAdmins {\n        // If the member does not exist, throw\n        if (members[member] == false) throw;\n\n        var allCards = punchClock[member];\n        if (allCards.length > 0) {\n            var lastCard = getLast(allCards);\n            if (lastCard.timeOut == 0) {\n                // remove the last card if it's incomplete. We'll replace it with a new one.\n                punchClock[member].length = punchClock[member].length - 1;\n            }\n        }\n\n        punchClock[member].push(\n            PunchCard({\n                timeIn: inTime,\n                timeOut: 0\n            })\n        );\n        PunchedIn(member, inTime);\n    }\n\n    // Register an out time for a member. Only admins can perform this task.\n    function punchOut(address member, uint64 outTime) onlyAdmins {\n        // If the member does not exist, throw\n        if (members[member] == false) throw;\n\n        var allCards = punchClock[member];\n        if (allCards.length == 0) throw;\n        var lastCard = getLast(allCards);\n        if (lastCard.timeOut != 0) throw;\n        // Remove the last card and replace it with a new one\n        punchClock[member].length = punchClock[member].length - 1;\n        punchClock[member].push(\n            PunchCard({\n                timeIn: lastCard.timeIn,\n                timeOut: outTime\n            })\n        );\n        PunchedOut(member, outTime);\n    }\n\n    // Remove an admin. Only owner can perform this task.\n    function removeAdmin(address admin) onlyOwner {\n        if (admins[admin] == true) {\n            admins[admin] = false;\n            members[admin] = false;\n        }\n        AdminRemoved(admin);\n    }\n\n    // Remove a member. Only admin can perform this task.\n    function removeMember(address member) onlyAdmins {\n        if (members[member] == true) {\n            members[member] = false;\n        }\n        if (admins[member] == true) {\n            admins[member] = false;\n        }\n        MemberRemoved(member);\n    }\n\n    // Check if a certain person is a member\n    function isMember(address person) constant returns(bool) {\n        return members[person];\n    }\n\n    // Check if a certain person is an admin\n    function isAdmin(address person) constant returns(bool) {\n        return admins[person];\n    }\n\n    // Change the owner to another person. Only owner can perform this task.\n    function changeOwner(address newOwner) onlyOwner {\n        addAdmin(newOwner);\n        var oldOwner = owner;\n        owner = newOwner;\n\n        OwnerChanged(oldOwner, newOwner);\n    }\n\n    // Kill the contract\n    function destroy() onlyOwner {\n        suicide(owner);\n    }\n\n    // TODO: batch adding\n    // function addAdmins(address[] admins) onlyOwner\n    // function addMembers(address[] members) onlyAdmins\n\n    // TODO: batch punching\n    //  function batchPunchIn(address[] members,  uint64[] inTimes) onlyAdmins\n    //  function batchPunchOut(address[] members,  uint64[] outTimes) onlyAdmins\n}\n",
  "sourcePath": "/Users/finley/Documents/blockchain/dapp/pet-shop/contracts/PunchClock.sol",
  "compiler": {
    "name": "solc",
    "version": "0.4.21+commit.dfe3193c.Emscripten.clang"
  },
  "schemaVersion": "2.0.0",
  "updatedAt": "2018-04-21T05:45:58.799Z"
}